:100000000C942A000C943F000C943F000C943F0089
:100010000C943F000C943F000C943F000C943F0064
:100020000C943F000C943F000C943F000C943F0054
:100030000C943F000C943F000C943F000C943F0044
:100040000C943F000C943F000C943F000C943F0034
:100050000C943F0011241FBECFE5D8E0DEBFCDBF1A
:1000600010E0A0E6B0E0E8EFF1E002C005900D92EC
:10007000A438B107D9F70E946C000C94FA000C94D4
:10008000000088BB9698959A87E893E10197F1F76D
:1000900000C0000082B3807C82BB18BA089588BB80
:1000A000969A959A87E893E10197F1F700C00000CE
:1000B00082B3807C82BB18BA0895CF93DF93EC01A2
:1000C0008881882331F021960E944F008991811107
:1000D000FBCFDF91CF910895CF93DF9300D01F9294
:1000E000CDB7DEB78FEF87BB1ABA81BB83ED90E344
:1000F0000197F1F700C0000087B1806C87B986B125
:10010000876A86B981E00E94410083ED90E3019700
:10011000F1F700C0000088E30E94410083ED90E306
:100120000197F1F700C000008FE00E94410083EDCD
:1001300090E30197F1F700C00000369A04B115B1C1
:1001400080E690E00E945D0080EC0E94410083E721
:1001500090E00E945D0088EC0E9441004AE0BE01F0
:100160006F5F7F4FC80196958795969587950E94FA
:10017000C500CE0101960E945D008CE790E00E94D0
:100180005D0080E80E944100D9CFBB274A3031F49E
:10019000992322F4BDE2909581959F4F0C94D10054
:1001A000BB27FB015527AA27880F991FAA1FA41751
:1001B00010F0A41B83955051B9F7A05DAA3308F045
:1001C000A95DA193009779F7B111B1931192CB0179
:1001D0000C94EA00DC01FC01672F71917723E1F7B1
:1001E000329704C07C916D9370836291AE17BF0704
:0801F000C8F30895F894FFCF55
:1001F800526F6F6D2074656D70657261747572658C
:10020800203A0054656D702843293D0020202020A5
:0402180020200000A2
:00000001FF
