S01A0000756C74726120736F6E69632073656E736F722E73726563EC
S11300000C942A000C9461000C943C000C943C0069
S11300100C943C000C943C000C943C000C943C006C
S11300200C943C000C943C000C943C000C943C005C
S11300300C943C000C943C000C943C000C943C004C
S11300400C943C000C943C000C943C000C943C003C
S11300500C943C0011241FBECFE5D8E0DEBFCDBF19
S113006020E0A0E6B0E001C01D92A436B207E1F79B
S11300700E943E000C9491000C9400008FEF8ABB08
S113008087BB8BEF81BB83ED90E30197F1F700C051
S113009000008BB780648BBF85B7816085BF1FBCB0
S11300A07894909A95E09A95F1F7909880916200EF
S11300B0909163008630974014F0919AF2CF919812
S11300C0F0CF1F920F920FB60F9211248F939F932C
S11300D08091600090916100019769F41EBC8CB519
S11300E09DB590936300809362001DBC1CBC10926C
S11300F06100109260008091600090916100892BF2
S113010049F48EB581608EBD81E090E090936100EA
S1130110809360009F918F910F900FBE0F901F905E
S10901201895F894FFCFCE
S9030000FC
