S0130000736572766F206D6F746F722E7372656391
S11300000C942A000C9434000C9434000C943400A6
S11300100C9434000C9434000C9434000C9434008C
S11300200C9434000C9434000C9434000C9434007C
S11300300C9434000C9434000C9434000C9434006C
S11300400C9434000C9434000C9434000C9434005C
S11300500C94340011241FBECFE5D8E0DEBFCDBF21
S11300600E9436000C9471000C94000081B38FEF51
S113007081BB8FB5826C8FBD8EB589618EBD8FE1DA
S11300809EE497BD86BD86B597B5805496409BBDCA
S11300908ABD2FEF84E39CE0215080409040E1F73B
S11300A000C0000086B597B5865A94409BBD8ABDB2
S11300B02FEF84E39CE0215080409040E1F700C0A2
S11300C0000086B597B58C5B92409BBD8ABD2FEF2F
S11300D084E39CE0215080409040E1F700C00000A0
S10900E0D2CFF894FFCF1B
S9030000FC
