S00C0000746573742E7372656358
S11300000C942A000C9434000C9434000C943400A6
S11300100C9434000C9434000C9434000C9434008C
S11300200C9434000C9434000C9434000C9434007C
S11300300C9434000C9434000C9434000C9434006C
S11300400C9434000C9434000C9434000C9434005C
S11300500C94340011241FBECFE5D8E0DEBFCDBF21
S11300600E9436000C9468000C94000081B38FEF5A
S113007081BB8FB5826C8FBD8EB589618EBD8FE1DA
S11300809EE497BD86BD86B597B5845F91409BBDC0
S11300908ABD86B597B5885998409BBD8ABD2FEF18
S11300A084E39CE0215080409040E1F700C00000D0
S11300B086B597B5845F91409BBD8ABD2FEF84E3DD
S11300C09CE0215080409040E1F700C00000E1CF67
S10700D0F894FFCFCE
S9030000FC
